:020000040800F2
:100000000081002029020008E5030008DD03000844
:10001000E103000895030008A9050008000000009E
:1000200000000000000000000000000015040008AF
:1000300099030008000000001104000819040008DA
:10004000430200084302000843020008430200087C
:1000500043020008430200089D030008BD03000896
:10006000430200084302000843020008430200085C
:10007000430200084302000843020008430200084C
:10008000430200084302000843020008430200083C
:10009000430200084302000843020008430200082C
:1000A000430200084302000843020008430200081C
:1000B000430200084302000843020008430200080C
:1000C00043020008430200084302000843020008FC
:1000D00043020008430200084302000843020008EC
:1000E00043020008430200084302000843020008DC
:1000F00043020008430200084302000843020008CC
:1001000043020008430200084302000843020008BB
:1001100043020008430200084302000843020008AB
:10012000430200084302000843020008430200089B
:10013000430200084302000843020008430200088B
:10014000430200084302000843020008430200087B
:10015000430200084302000843020008430200086B
:10016000430200084302000843020008430200085B
:100170004302000843020008430200080000000098
:10018000430200084302000800F002F800F03CF8C7
:100190000AA090E8000C82448344AAF10107DA45E2
:1001A00001D100F031F8AFF2090EBAE80F0013F0F8
:1001B000010F18BFFB1A43F001031847840E00001B
:1001C000A40E0000103A24BF78C878C1FAD85207AC
:1001D00024BF30C830C144BF04680C6070470000C1
:1001E0000023002400250026103A28BF78C1FBD840
:1001F000520728BF30C148BF0B6070471FB500F0E1
:10020000C7FE1FBD10B510BD00F08FF81146FFF7F7
:10021000F5FF00F01FFD00F0ADF803B4FFF7F2FFAB
:1002200003BC00F0B1F800000948804709480047C6
:10023000FEE7FEE7FEE7FEE7FEE7FEE7FEE7FEE796
:10024000FEE7FEE704480549054A064B70470000F3
:10025000210400088901000800010020008100201D
:10026000004100200041002010B5203AC0F00B8072
:10027000B1E81850203AA0E81850B1E81850A0E8AA
:100280001850BFF4F5AF5FEA027C24BFB1E8185004
:10029000A0E8185044BF18C918C0BDE810405FEA74
:1002A000827C24BF51F8043B40F8043B08BF7047F0
:1002B000D20728BF31F8023B48BF11F8012B28BFF5
:1002C00020F8023B48BF00F8012B70474FF00002B6
:1002D00000B5134694469646203922BFA0E80C503C
:1002E000A0E80C50B1F12001BFF4F7AF090728BF17
:1002F000A0E80C5048BF0CC05DF804EB890028BF93
:1003000040F8042B08BF704748BF20F8022B11F0BB
:10031000804F18BF00F8012B704770477047704737
:1003200000487047A000002070477546FFF7F8FFAF
:10033000AE4605006946534620F00700854618B0D2
:1003400020B5FFF77FFFBDE820404FF000064FF0DB
:1003500000074FF000084FF0000B21F00701AC46FA
:10036000ACE8C009ACE8C009ACE8C009ACE8C00919
:100370008D46704710B50446AFF300802046BDE8B7
:100380001040FFF74ABF000001491820ABBEFEE74E
:100390002600020000BFFEE700BFFEE710B50548DB
:1003A00000F0DBF928B1034800F0CEF9024800F074
:1003B000E2FA10BD580000203800002010B50548B2
:1003C00000F0CBF928B1034800F0BEF9024800F074
:1003D000D2FA10BD7C0000203800002000BFFEE7EC
:1003E00000BFFEE700BFFEE710B5002807DA0A07E6
:1003F000140E054A00F00F031B1FD45403E00A0734
:10040000130E024A135410BD18ED00E000E400E0A2
:1004100000BFFEE700BFFEE710B500F021F910BDF8
:100420001CB55D48006840F470005B4908605B489B
:10043000006840F001005949086000BF5748006853
:1004400000F002000028F9D054480830006800F09D
:100450000C0008286ED100BF0020019002E0019836
:10046000401C019001985028F9D34C48083000688E
:100470000090009820F0F0000090009840F080007C
:10048000009046490831009808600020019002E081
:100490000198401C019001985028F9D33F4808303A
:1004A00000680090009820F0F0000090009840F064
:1004B00090000090394908310098086000200190B0
:1004C00002E00198401C019001985028F9D333486C
:1004D000083000680090009820F0F000009000982C
:1004E00040F0A00000902D490831009808600020DD
:1004F000019002E00198401C019001985028F9D326
:100500002648083000680090009820F0F000009025
:10051000009840F0B0000090204908310098086031
:100520000020019002E00198401C019001985028A1
:10053000F9D300BF19480830006820F003001749BC
:1005400008310860C82000F031F8144800681449E8
:100550000840124908600846006820F480200860BE
:1005600000200E490831086000BF0C4808300068C0
:1005700000200028F9D10B480849091D0860002017
:1005800006490C31086000F0FFFC00214FF00060CC
:1005900000F0F4FB1CBD000088ED00E000380240D4
:1005A000FFFFF6FE1030002400BFFEE708B5002173
:1005B000009102E00099491C009100EB8001009A33
:1005C000B2EB410FF6D308BD10B50548007828B14D
:1005D000002003490870034800F0CDF910BD000069
:1005E000130000201800002010B500F011F84FF49F
:1005F000E06000F007F800F0CDFB00F0BDFA00F07D
:10060000C5F910BD10B50446204600F0ADFB10BD85
:1006100010B51248006842F21071B0FBF1F4601E90
:10062000B0F1807F01D301200FE0601E4FF0E02188
:1006300048610F214FF0FF30FFF7D6FE00204FF04A
:10064000E021886107200861002008B100BFFEE7B3
:100650000021481EFFF7C8FE10BD00001400002056
:1006600022480068401C2149086021480088401C3D
:1006700080B21F4908800A2804DB0020088001207E
:100680001C4908701C480088401C80B21A49088028
:10069000642804DB002008800120184908701848ED
:1006A0000088401C80B216490880C82804DB00205E
:1006B000088001201349087013480088401C80B24C
:1006C0001149088041F28831884205DB00200E493B
:1006D000088001200D4908700D48006820B10C48C1
:1006E0000068401E0A4908607047000004000020AE
:1006F00008000020100000200A0000201100002047
:100700000C000020120000200E000020130000202A
:100710000000002070B5044604B970BD94F82000B4
:1007200068B9606800F0D8F9606800F04EF80546D6
:1007300094F8232094F8221000F092FA02E0606806
:1007400000F064F900BFE8E710B5044604B910BD35
:10075000606800F0C9F900BFF9E710B504460CB9AC
:10076000002010BD606800F0C5F9FAE770B50446D6
:1007700004B970BD41F20E1000F016FB204600F0E7
:10078000C9F8606800F04FF80546206800F05AF894
:100790000646294600F01AFB94F8212094F8201010
:1007A000606800F03BF9606800F09EF994F8200062
:1007B00048B9606800F009F8054694F8232094F8D9
:1007C000221000F04DFA00BFD3E70146202922D0C5
:1007D0000CDC042919D004DC012912D0022920D113
:1007E00011E0082913D010291BD112E0402913D0A1
:1007F000802912D0B1F5807F10D0B1F5007F10D1E3
:100800000DE0062070470720FCE70820FAE70920E2
:10081000F8E70A20F6E700BF00BF00BF00BF1720BF
:10082000F0E72820EEE70246002107E0012088409B
:10083000904201D108467047481CC1B21029F5DB2F
:100840000020F8E70146C1F30900F0B98812A0F5CD
:1008500080108038092818D2DFE800F00507090B5E
:100860000D0F11131500002070470120FCE7022036
:10087000FAE70320F8E70420F6E70520F4E706206E
:10088000F2E70720F0E70820EEE70020ECE710B5DC
:100890000446C4F3090078BBA012A0F5801080388C
:1008A000092834D2DFE800F0050A0F14191E2329A5
:1008B0002E004FF4406000F077FA29E040F6014046
:1008C00000F072FA24E040F6024000F06DFA1FE0FA
:1008D00040F6034000F068FA1AE040F6044000F0E9
:1008E00063FA15E040F6054000F05EFA10E040F6CD
:1008F000064000F059FA0BE009E040F6074000F02E
:1009000053FA05E040F6084000F04EFA00E000BF60
:1009100000BF10BD70B5044604B970BD2068FFF774
:10092000B6FFD4E90131E268206800F04BF9A06815
:10093000022804D1D4E90002A16900F0E7F8A06818
:10094000012802D0A068022805D1217CD4E9000347
:10095000626900F05EF9A06801280AD1E06920B15F
:10096000D4E9000100F003F903E0D4E9000100F04C
:10097000FCF800BFD1E710B5044604B910BDD4E9B6
:10098000000100F0F6F800BFF8E7000000B5A3B0E2
:1009900020221B4912A8FFF767FC242218492031A6
:1009A0001AA8FFF761FC202212A91AA8FFF75CFC25
:1009B00024221AA91348FFF757FC2022104944317A
:1009C00001A8FFF751FC242109A8FFF77FFC202292
:1009D00001A909A8FFF748FC242209A90A48FFF742
:1009E00043FC0848FFF7C2FE0648FFF793FE06489F
:1009F000FFF7BCFE0448FFF78DFE23B000BD0000EA
:100A0000DC0F0008580000207C0000200249096823
:100A10000143014A11607047043C014010B52D4B61
:100A20001B6883432B4C2360231D1B688343241DB9
:100A30002360231D1B688343241D2360231D1B6823
:100A40008343241D236011B101290ED105E0214B00
:100A50001B6803431F4C236008E01E4B1B1D1B68D3
:100A600003431C4C241D236000E000BF00BF32B1D3
:100A7000012A11D0022A1CD0032A27D127E0154BC6
:100A800008331B680343134C08342360231D1B6881
:100A90008343241D23601BE00E4B08331B688343F4
:100AA0000C4C08342360231D1B680343241D236062
:100AB0000EE0084B08331B680343064C08342360E0
:100AC000231D1B680343241D236001E000BF00BFFA
:100AD00000BF10BD003C0140024909680143014AC2
:100AE00011607047003C01400149086070470000F8
:100AF000143C01400146044A12680A400AB1012030
:100B000000E0002070470000143C0140F0B50346AF
:100B10001C6A5D6A00200DE00126864016403EB149
:100B200087000F26BE40B443860001FA06F6344320
:100B3000461CB0B20828EFD3082011E001268640F9
:100B400016405EB1A0F10806B7000F26BE40B543BF
:100B5000A0F10806B60001FA06F63543461CB0B20D
:100B60001028EBD31C625D62F0BD81627047816129
:100B70007047C1627047000000B591B020220E4955
:100B800009A8FFF771FB202209A90C48FFF76CFBAD
:100B900020220949203101A8FFF766FB202201A984
:100BA0000748FFF761FB0548FFF7B4FE0448FFF76D
:100BB000B1FE11B000BD00009C0F0008180000201D
:100BC00038000020F0B504460D4616462168E2685C
:100BD000002019E0012787401F409FB14FEA400CD9
:100BE000032707FA0CF7B943470005FA07F739431B
:100BF0004FEA400C032707FA0CF7BA43470006FAFE
:100C000007F73A43471CB8B21028E3D32160E260EB
:100C1000F0BDF0B50C461546012C03D146681E43C5
:100C2000466002E046689E434660826800210DE00F
:100C300001268E401E403EB14F000326BE40B24307
:100C40004E0005FA06F632434E1CB1B21029EFD31E
:100C50008260F0BDFFF7C8FC01E0FFF7B5FCFCE7E0
:100C60002DE9F04F03460E4617463D48006800F454
:100C7000E060B0F5A06F0FD006DCB0F5407F0DD07E
:100C8000B0F5806F0BD108E0B0F5C06F03D0B0F5C0
:100C9000E06F04D100BF00BF00BF00BF04E04FF40D
:100CA000A06000F061F800BF00BF00BF2C480068E2
:100CB000C0F30220044620463246BC460146C1F13C
:100CC000070ABAF1040F02D94FF0040A01E0C1F19A
:100CD000070AD14601F1040ABAF1070F02D24FF018
:100CE000000A01E0A1F1030AD0464FF0010A0AFA16
:100CF00009FAAAF1010A0AEA020A0AFA08FA4FF006
:100D0000010B0BFA08FBABF1010B0BEA0C0B4AEAE7
:100D10000B0500BF1946284600290BDA02074FEAE7
:100D200012680F4A0C3201F00F0CACF1040C02F8FF
:100D30000C8005E002074FEA126C0A4A02F801C073
:100D400000BF00BF03F01F0101208840590989003E
:100D500001F1E021C1F8000100BFBDE8F08F000003
:100D60000CED00E000E400E002490143024A11609A
:100D7000704700000000FA050CED00E0034A0A404D
:100D80000243034B1A60BFF34F8F704780FFFF1F72
:100D900008ED00E010B54FF4406000F005F841F2B6
:100DA0000E1000F001F810BD074A02EB9011D1F8C7
:100DB000001800F01F0301229A401143024B03EB7D
:100DC0009012C2F8001870470030024070B5044617
:100DD0000B46CD1701EB9575AD10A1EB8505AE0067
:100DE0000F25B540E843CD1701EB9575AD10A1EB8C
:100DF0008505AD0004FA05F2CD1701EB9575AD1030
:100E000035B1012D0ED0022D18D0032D2ED121E0A9
:100E1000184B1B680340174D2B602B461B68134370
:100E20002B6024E0134B1B1D1B680340114D2D1D2F
:100E30002B602B461B6813432B6018E00D4B0833C7
:100E40001B6803400B4D08352B602B461B68134372
:100E50002B600CE0074B0C331B680340054D0C3531
:100E60002B602B461B6813432B6000E000BF00BFC4
:100E700070BD00000838014008B5002000213F4A3D
:100E8000126842F480323D4B1A6000BF401C3B4A5E
:100E9000126802F4003119B94FF6FF729042F5D191
:100EA000364A126802F4003232B900BF334A12687F
:100EB00002F40032002AF9D0304A4032126842F07F
:100EC00080522E4B40331A602D4A126842F4404241
:100ED0002B4B1A60294A08321268284B08331A60D3
:100EE0001A46126842F400421A601A46126842F426
:100EF000A0521A60234A1B1F1A601A1F126842F080
:100F000080721B1F1A6000BF1C4A126802F0007238
:100F1000002AF9D01A4A126842F48032184B1A603B
:100F200000BF174A526802F48032002AF9D0144AEE
:100F3000126842F40032124B1A6000BF104A526825
:100F400002F40032002AF9D00C4A083212680092EA
:100F5000009A22F003020092009A42F002020092EC
:100F6000064B0833009A1A6000BF044A0832126820
:100F700002F00802002AF8D008BD00000038024044
:100F8000007000401964400910B5FFF775FF10BDEF
:100F90004FF04070E1EE100A704700000000024080
:100FA000040000000100000000000000000000003C
:100FB00002000000000000000100000000000240EC
:100FC0000800000001000000000000000000000018
:100FD00002000000000000000100000000000240CC
:100FE00001000000000000000200000000000000FE
:100FF00002000000000000000000000000000000EF
:1010000000000000000000000000000000000000E0
:1010100000000000000000000000000000010000CF
:10102000000002400200000000000000020000007A
:1010300000000000020000000000000000000000AE
:10104000601000080000002018000000C401000823
:101050007810000818000020E8800000E001000877
:101060000000000000000000000000000000000080
:081070000000000000C2EB0BC0
:040000050800018965
:00000001FF
