:020000040800F2
:10000000608000200D020008D7020008CF0200081F
:10001000D3020008C70200086D04000800000000B9
:10002000000000000000000000000000DF020008E7
:10003000CB02000800000000DB020008E302000819
:1000400027020008270200082702000827020008EC
:1000500027020008270200082702000827020008DC
:1000600027020008270200082702000827020008CC
:1000700027020008270200082702000827020008BC
:1000800027020008270200082702000827020008AC
:10009000270200082702000827020008270200089C
:1000A000270200082702000827020008270200088C
:1000B000270200082702000827020008270200087C
:1000C000270200082702000827020008270200086C
:1000D000270200082702000827020008270200085C
:1000E000270200082702000827020008270200084C
:1000F000270200082702000827020008270200083C
:10010000270200082702000827020008270200082B
:10011000270200082702000827020008270200081B
:10012000270200082702000827020008270200080B
:1001300027020008270200082702000827020008FB
:1001400027020008270200082702000827020008EB
:1001500027020008270200082702000827020008DB
:1001600027020008270200082702000827020008CB
:1001700027020008270200082702000800000000EC
:10018000270200082702000800F002F800F02EF80D
:100190000AA090E8000C82448344AAF10107DA45E2
:1001A00001D100F023F8AFF2090EBAE80F0013F006
:1001B000010F18BFFB1A43F0010318471004000099
:1001C000200400000023002400250026103A28BF48
:1001D00078C1FBD8520728BF30C148BF0B607047B9
:1001E0001FB500F0EDF91FBD10B510BD00F031F8DE
:1001F0001146FFF7F5FF00F049F900F04FF803B49E
:10020000FFF7F2FF03BC00F057F8000009488047F1
:1002100009480047FEE7FEE7FEE7FEE7FEE7FEE7E8
:10022000FEE7FEE7FEE7FEE704480549054A064B00
:1002300070470000E5020008890100086000002006
:1002400060800020604000206040002070477047C0
:100250007047754600F02CF8AE46050069465346D7
:1002600020F00700854618B020B5FFF7DDFFBDE898
:1002700020404FF000064FF000074FF000084FF00D
:10028000000B21F00701AC46ACE8C009ACE8C0099E
:10029000ACE8C009ACE8C0098D46704710B504460B
:1002A000AFF300802046BDE81040FFF7A8BF000074
:1002B000004870470000002001491820ABBEFEE74F
:1002C00026000200704700BFFEE700BFFEE700BF48
:1002D000FEE700BFFEE700BFFEE700BFFEE700BF8E
:1002E000FEE770471CB55D48006840F470005B494C
:1002F00008605B48006840F001005949086000BF91
:100300005748006800F002000028F9D0544808302F
:10031000006800F00C0008286ED100BF002001909A
:1003200002E00198401C019001985028F9D34C48F4
:10033000083000680090009820F0F00000900098CD
:1003400040F0800000904649083100980860002085
:10035000019002E00198401C019001985028F9D3C7
:100360003F48083000680090009820F0F0000090AE
:10037000009840F0900000903949083100980860DA
:100380000020019002E00198401C01900198502843
:10039000F9D33348083000680090009820F0F0004E
:1003A0000090009840F0A00000902D49083100987E
:1003B00008600020019002E00198401C0190019823
:1003C0005028F9D32648083000680090009820F0A3
:1003D000F0000090009840F0B000009020490831F3
:1003E000009808600020019002E00198401C0190F4
:1003F00001985028F9D300BF19480830006820F050
:100400000300174908310860C82000F031F814488B
:10041000006814490840124908600846006820F442
:100420008020086000200E490831086000BF0C4899
:100430000830006800200028F9D10B480849091D40
:100440000860002006490C31086000F0B5F8002172
:100450004FF0006000F01CF81CBD000088ED00E0CB
:1004600000380240FFFFF6FE1030002400BFFEE718
:1004700008B50021009102E00099491C009100EBB1
:100480008001009AB2EB410FF6D308BD00BFFEE732
:10049000034A0A400243034B1A60BFF34F8F704771
:1004A00080FFFF1F08ED00E008B5002000213F4A53
:1004B000126842F480323D4B1A6000BF401C3B4A38
:1004C000126802F4003119B94FF6FF729042F5D16B
:1004D000364A126802F4003232B900BF334A126859
:1004E00002F40032002AF9D0304A4032126842F059
:1004F00080522E4B40331A602D4A126842F440421B
:100500002B4B1A60294A08321268284B08331A60AC
:100510001A46126842F400421A601A46126842F4FF
:10052000A0521A60234A1B1F1A601A1F126842F059
:1005300080721B1F1A6000BF1C4A126802F0007212
:10054000002AF9D01A4A126842F48032184B1A6015
:1005500000BF174A526802F48032002AF9D0144AC8
:10056000126842F40032124B1A6000BF104A5268FF
:1005700002F40032002AF9D00C4A083212680092C4
:10058000009A22F003020092009A42F002020092C6
:10059000064B0833009A1A6000BF044A08321268FA
:1005A00002F00802002AF8D008BD0000003802401E
:1005B000007000401954400710B5FFF775FF10BDDB
:1005C0004FF04070E1EE100A70470000DC050008B3
:0C05D0000000002060800000C401000852
:040000050800018965
:00000001FF
