:020000040800F2
:100000007880002029020008F3020008EB020008B3
:10001000EF020008E3020008B90400080000000035
:1000200000000000000000000000000025030008A0
:10003000E70200080000000021030008290300086F
:10004000430200084302000843020008430200087C
:10005000430200084302000843020008430200086C
:10006000430200084302000843020008430200085C
:10007000430200084302000843020008430200084C
:10008000430200084302000843020008430200083C
:10009000430200084302000843020008430200082C
:1000A000430200084302000843020008430200081C
:1000B000430200084302000843020008430200080C
:1000C00043020008430200084302000843020008FC
:1000D00043020008430200084302000843020008EC
:1000E00043020008430200084302000843020008DC
:1000F00043020008430200084302000843020008CC
:1001000043020008430200084302000843020008BB
:1001100043020008430200084302000843020008AB
:10012000430200084302000843020008430200089B
:10013000430200084302000843020008430200088B
:10014000430200084302000843020008430200087B
:10015000430200084302000843020008430200086B
:10016000430200084302000843020008430200085B
:100170004302000843020008430200080000000098
:10018000430200084302000800F002F800F03CF8C7
:100190000AA090E8000C82448344AAF10107DA45E2
:1001A00001D100F031F8AFF2090EBAE80F0013F0F8
:1001B000010F18BFFB1A43F001031847580600004F
:1001C00078060000103A24BF78C878C1FAD85207E0
:1001D00024BF30C830C144BF04680C6070470000C1
:1001E0000023002400250026103A28BF78C1FBD840
:1001F000520728BF30C148BF0B6070471FB500F0E1
:1002000003FB1FBD10B510BD00F036F81146FFF717
:10021000F5FF00F02DFA00F054F803B4FFF7F2FFF9
:1002200003BC00F057F80000094880470948004720
:10023000FEE7FEE7FEE7FEE7FEE7FEE7FEE7FEE796
:10024000FEE7FEE704480549054A064B70470000F3
:100250003103000889010008780000207880002020
:1002600078400020784000207047704770470000B9
:1002700000487047180000207546FFF7F9FFAE46AA
:1002800005006946534620F00700854618B020B5A2
:10029000FFF7D8FFBDE820404FF000064FF0000701
:1002A0004FF000084FF0000B21F00701AC46ACE81E
:1002B000C009ACE8C009ACE8C009ACE8C0098D468B
:1002C000704710B50446AFF300802046BDE81040EB
:1002D000FFF7A3BF01491820ABBEFEE726000200CE
:1002E000704700BFFEE700BFFEE700BFFEE700BFAC
:1002F000FEE700BFFEE7000010B5002807DA0A0796
:10030000140E054A00F00F031B1FD45403E00A0724
:10031000130E024A135410BD18ED00E000E400E093
:1003200000BFFEE700BFFEE710B500F0FDF810BD0E
:100330001CB55D48006840F470005B4908605B488C
:10034000006840F001005949086000BF5748006844
:1003500000F002000028F9D054480830006800F08E
:100360000C0008286ED100BF0020019002E0019827
:10037000401C019001985028F9D34C48083000687F
:100380000090009820F0F0000090009840F080006D
:10039000009046490831009808600020019002E072
:1003A0000198401C019001985028F9D33F4808302B
:1003B00000680090009820F0F0000090009840F055
:1003C00090000090394908310098086000200190A1
:1003D00002E00198401C019001985028F9D333485D
:1003E000083000680090009820F0F000009000981D
:1003F00040F0A00000902D490831009808600020CE
:10040000019002E00198401C019001985028F9D316
:100410002648083000680090009820F0F000009016
:10042000009840F0B0000090204908310098086022
:100430000020019002E00198401C01900198502892
:10044000F9D300BF19480830006820F003001749AD
:1004500008310860C82000F031F8144800681449D9
:100460000840124908600846006820F480200860AF
:1004700000200E490831086000BF0C4808300068B1
:1004800000200028F9D10B480849091D0860002008
:1004900006490C31086000F0B3F900214FF000600C
:1004A00000F008F91CBD000088ED00E000380240B3
:1004B000FFFFF6FE1030002400BFFEE708B5002164
:1004C000009102E00099491C009100EB8001009A24
:1004D000B2EB410FF6D308BD10B51248006842F2E6
:1004E0001071B0FBF1F4601EB0F1807F01D30120E8
:1004F0000FE0601E4FF0E02148610F214FF0FF3008
:10050000FFF7FAFE00204FF0E02188610720086124
:10051000002008B100BFFEE70021481EFFF7ECFEF7
:1005200010BD00001400002022480068401C214932
:10053000086021480088401C80B21F4908800A28B2
:1005400004DB0020088001201C4908701C4800883A
:10055000401C80B21A490880642804DB002008800F
:1005600001201849087018480088401C80B21649BC
:100570000880C82804DB0020088001201349087087
:1005800013480088401C80B21149088041F288312C
:10059000884205DB00200E49088001200D490870C3
:1005A0000D48006820B10C480068401E0A490860E8
:1005B0007047000004000020080000201000002008
:1005C0000A000020110000200C0000201200002072
:1005D0000E0000201300002000000020C1627047C0
:1005E000F0B504460D4616462168E268002019E081
:1005F000012787401F409FB14FEA400C032707FAAD
:100600000CF7B943470005FA07F739434FEA400CA6
:10061000032707FA0CF7BA43470006FA07F73A43ED
:10062000471CB8B21028E3D32160E260F0BDF0B5FA
:100630000C461546012C03D146681E43466002E075
:1006400046689E434660826800210DE001268E4088
:100650001E403EB14F000326BE40B2434E0005FA95
:1006600006F632434E1CB1B21029EFD38260F0BDC2
:10067000FFF732FF4FF4406000F028F80423002217
:1006800001210A48FFF7ACFF04230222002107489A
:10069000FFF7CDFF09E00648007830B1002004499B
:1006A000087004210148FFF799FFF4E700000240B9
:1006B00013000020034A0A400243034B1A60BFF3B1
:1006C0004F8F704780FFFF1F08ED00E0074A02EBE5
:1006D0009011D1F8001800F01F0301229A40114335
:1006E000024B03EB9012C2F8001870470030024032
:1006F00008B5002000213F4A126842F480323D4B89
:100700001A6000BF401C3B4A126802F4003119B95C
:100710004FF6FF729042F5D1364A126802F4003269
:1007200032B900BF334A126802F40032002AF9D00D
:10073000304A4032126842F080522E4B40331A60E9
:100740002D4A126842F440422B4B1A60294A083263
:100750001268284B08331A601A46126842F40042A5
:100760001A601A46126842F4A0521A60234A1B1FEC
:100770001A601A1F126842F080721B1F1A6000BFB5
:100780001C4A126802F00072002AF9D01A4A126854
:1007900042F48032184B1A6000BF174A526802F4C4
:1007A0008032002AF9D0144A126842F40032124B07
:1007B0001A6000BF104A526802F40032002AF9D0D1
:1007C0000C4A083212680092009A22F0030200924A
:1007D000009A42F002020092064B0833009A1A6017
:1007E00000BF044A0832126802F00802002AF8D05A
:1007F00008BD000000380240007000401964400944
:1008000010B5FFF775FF10BD4FF04070E1EE100A14
:1008100070470000340800080000002018000000A5
:10082000C40100084C080008180000206080000087
:10083000E0010008000000000000000000000000CF
:0C084000000000000000000000C2EB0BF4
:040000050800018965
:00000001FF
